:020000040800F2
:10000000F0FF0220455B0608B55B0608E9500208D0
:10001000B55B0608B55B0608B55B06080000000086
:10002000000000000000000000000000B55B0608B2
:10003000B55B060800000000B55B0608C5100208A5
:10004000B55B0608B55B0608B55B0608B55B060838
:10005000B55B0608B55B0608DD030208010402086B
:100060003D04020879040208B5040208B55B0608DD
:10007000B55B0608B55B0608B55B0608B55B060808
:10008000B55B0608B55B0608E9EE0008B55B060837
:10009000B55B0608B55B0608B55B0608F104020807
:1000A000B55B0608B55B0608B55B0608CDAF000872
:1000B000DDAF0008EDAF0008FDAF0008B55B060836
:1000C000B55B060841BB000899BA0008B55B060895
:1000D000B55B0608690D0208010E0208990E0208B8
:1000E0002D050208B55B0608B55B0608B55B06087A
:1000F000B55B0608B55B0608B55B0608B55B060888
:10010000B55B0608B55B06080DB00008B55B0608D0
:10011000B55B0608310F020841EC00087DEC0008D1
:1001200059B100086DB1000881B1000895B100080F
:10013000A9B10008B55B0608B55B0608B55B060803
:10014000B55B0608B55B0608B55B060875B3050820
:10015000BDB10008D1B1000800000000B55B060881
:10016000B55B0608B55B0608000000000000000053
:10017000B55B0608B55B0608B55B06080000000025
:1001800000000000B55B0608C90F0208B55B060851
:10019000B55B060800000000000000000000000041
:1001A000000000000000000000000000B55B060831
:1001B000B55B060800000000B55B06080000000003
:1001C000000000000000000000000000000000002F
:1001D0000000000000000000B55B0608B55B0608E3
:1001E000B55B0608B55B0608B55B0608B55B060897
:1001F000E5B10008F9B100080DB2000821B200080D
:0C02000035B2000849B200085DB20008E9
:0828000000C00F0800001008E1
:108000000348044B834202D0034B03B11847704727
:108010009C1601209C16012000000000054806491E
:108020000B1AD90F01EBA301491002D0034B03B186
:10803000184770479C1601209C1601200000000084
:1080400010B5064C237843B9FFF7DAFF044B13B1A0
:108050000448AFF300800123237010BDA016012057
:108060000000000020A5070808B5044B1BB1044917
:108070000448AFF30080BDE80840CFE700000000EF
:10808000A416012020A5070810B50268047C116819
:108090000223A340194208D0044900240C7041680F
:1080A000086864F300000860536010BDBC1601202E
:1080B000026890F810C01368022101FA0CF10B421B
:1080C000F0B408D11168082303FA0CF31942F0BC8C
:1080D00018BF53607047042303FA0CF344695160DE
:1080E0005360EFF31183502282F31288226C1168DF
:1080F000C90706D5DBB283F31188026890F810C077
:10810000E0E7516889B279B9D4E90975AF421BD06B
:10811000A6692E44D66012D82669751BADB255608B
:10812000A162002184F86C10116841F00101DBB2FA
:10813000116083F31188026890F810C0C2E77D1BBC
:10814000ADB25560A762ECE7012284F86C20D1E75C
:1081500030B5EAB18E464FEA014C034600F1C00546
:10816000002419689A6841EA0C0142EA0E029A60FA
:10817000C3E900140C33AB42F3D1D0F8C030C0F8DF
:10818000C44043EA0E03C0F8C030C0F8C84030BD58
:108190004FEA014E8C46E0E710B40C4C2368002BEC
:1081A00011DD002004F1040C0146DCF8743003F109
:1081B000C00259600C339342FBD1236801308342E3
:1081C0000CF1AC0CF1DC5DF8044B7047F84000108A
:1081D000704700BF704700BF024B03EB401090F8A0
:1081E000D1027047F840001070B5104ED6F8B43385
:1081F000002B19DD06F52D74002505E0D6F8B43303
:10820000AB4204F120040FDD237F0135002BF5D0B4
:10821000E0680028F2D0217D18F012FAD6F8B433C5
:10822000AB4204F12004EFDC012070BDF8400010E7
:108230002DE9F0414668836938490324720004FA45
:1082400002F5DC6B91F8B8732C43DC6301215C6CA4
:1082500001FA02F222435A649A6C4FB1C568B140E8
:1082600011439964002D57D02B68AA889A610AE0BF
:108270001036C568B14011439964002D4CD0AA88CE
:108280002B6812049A6103F13F4303F57E039B0AB6
:108290002349244A4E78D05C58F022F8AC882B68E9
:1082A0007601C6F34116002C36D04FF0000C0327A0
:1082B00001251FFA8CF0420014F0010F07FA02FEAC
:1082C00005FA02F105FA00F00CF1010C22D0D3F806
:1082D000008028EA0E08C3F80080D3F8008048EA3E
:1082E0000108C3F80080D3F8048028EA0000586031
:1082F00058685860986820EA0E00986098680143B2
:108300009960D96821EA0E01D960D96806FA02F2AB
:108310000A43DA606408CCD1BDE8F081F84000106F
:10832000BC160120846B06084368826C10B49A6105
:10833000EFF31182502383F312884168C46B0B68FA
:1083400023EA0403446C2343D2B20B6082F3118806
:10835000D0E907418268036912681C605960D0E95E
:1083600009419C60D960B0F85C10D16200235DF8CF
:10837000044B0376704700BF10B4EFF31182502313
:1083800083F312884168C46B0B6823EA0403046C0E
:108390002343D2B20B6082F31188D0E90B4182688B
:1083A000036912681C605960D0E90D419C60D96076
:1083B0000024B0F87C105462D1621A6801210A438B
:1083C0001A605DF8044B0176704700BF83681B6834
:1083D0000022D9629A62596941F001015961196814
:1083E00062F309211960196862F3061119601A68AD
:1083F00042F080021A607047074BD0F894105B6817
:10840000D0F8A0205B1A9A42B8BFC0F8A030012370
:1084100080F8CC3000207047001000E0B4224FF408
:10842000EB7100234FF4A57C8280C180124A037057
:10843000A0F802C0102103E001331C2B0AD091796F
:1084400011F0800F02F12002F6D00C4A02EB431328
:10845000197B00E000214FF4E17200234FF4877C88
:1084600001724281962144224372A0F80CC0C1815E
:1084700002824382704700BF8C6B0608846B06083B
:108480004FF40063838170477047012070470120DB
:1084900070472DE9F047DFF88081D8F80450B8F82C
:1084A0000820B8F80E90C2EB25135200C2EBE5028B
:1084B000B8F90A506A4303FB03F5B8F90C302D13E1
:1084C0005D43AD1305EBE225B8F91230C8F8205032
:1084D0000E46A5F5FA31074681FB010C4FEAE37E13
:1084E00003FB0CF200FB0E22A3FB003E9644B8F9FE
:1084F000102082FB01421B0A120343EA0E6342EA88
:10850000145224031B1942EB2E2202F50042A3FB56
:10851000093E09FB02EE4FEAEE734FEA6E0253EAA0
:108520006E0E4FF000046BD0B8F918904FEAE97E58
:1085300009FB0CFC00FB0ECCA9FB00908444B8F9AD
:10854000160080FB01E148044FEA4E4111EB090996
:10855000D8F8241040EADE304CEB0000C1F5801C56
:108560000CF0004AB8F9141014EB09044AEA5C0A4A
:108570004FEACC7C00EBC10140F63549BCEB04006E
:108580006AEB010AA0FB090109FB0A115DF096F8EC
:10859000B8F91E404FEA613E430B43EAC14304FB76
:1085A0000EF24FEAE47C03FB0C2CA4FB0342624472
:1085B00004FB0EFE03FB02EEA4FB0343B8F91C20F0
:1085C0009E44640E44EACE1414EB000C02FB01F34B
:1085D0004FEAE274814641EB6E6EA2FB092904FB6F
:1085E00000314944D40C44EA41341CEB0404B8F98A
:1085F0001A304EEBE141240A44EA016404EB03140F
:108600000FB1240A3C6026B105EB850580352D129B
:108610003560BDE8F08700BFBC16012008B50068D2
:1086200059F0CAFAD8B90F4A0F4992F8BD3392F8F7
:10863000BC031B0143EA003392F8BE0343EA101364
:108640004B6292F8C03392F8BF0392F8C1231B012A
:1086500043EA003343EA12134B60012008BD0020B7
:10866000FCE700BFF8400010BC1601203B4B9FED1B
:108670003C4A93F8291093F8280093F82A2093F89D
:108680002BC093ED0E7A090201EB00410A44090266
:1086900048BF02F17F4207EE902AB3F9442093F8D5
:1086A0002C0093F82D1006EE102AB3F94020F8EEB6
:1086B000E77A06EE902A67EE847AB3F94220B8EEA4
:1086C000C66AF8EEE66A0002E7EE866A00EB0C4046
:1086D000014406EE102AB3F93E20000205EE102AEE
:1086E00048BF01F17F41B3F93C20F8EEC75A07EECD
:1086F000101AB8EEC66AB8EEC55AE6EEA75A0120BF
:10870000D3ED0D6A04EE902AB8EEC77AA7EE865A2A
:10871000B3F9322027EE047AF8EEE44AB8EEE66ABE
:1087200006EE902AB3F93020A7EE246AE5EE075A48
:10873000F8EEE66A05EE102A26EE877AB8EEC55AFC
:10874000F6EE004AF0EE466AE7EEA56AA5EE247A58
:10875000C3ED126A83ED137A704700BFBC16012087
:108760000821843630B10A4BD3ED127AFDEEE77A58
:10877000C0ED007A51B1064B9FED067AD3ED137A26
:1087800067EE877AFDEEE77AC1ED007A704700BFA9
:10879000BC1601200000C842704700BF012070478E
:1087A00001207047704708B5006859F005FA70B9A4
:1087B000084A92F8C53392F8C41392F8C6231B02F4
:1087C00043EA01431343044A0120136508BD002016
:1087D000FCE700BFF8400010BC16012008B5006897
:1087E00059F0EAF970B9084A92F8C53392F8C413FF
:1087F00092F8C6231B0243EA01431343034A0120B4
:10880000536508BD0020FCE7F8400010BC160120AD
:108810002DE9F74F554AB2F86230B2F85E60B2F80F
:108820006470CDE90001116D1B02C91AB2F8603005
:108830006EEB0E0EA3FB010403FB0E44B2F85C309A
:10884000C00940EA44601B04C018A6FB013506FBC2
:108850000E55B2F85A604FEA132343EA05634FEA14
:10886000C6364FEAE41444F100049B19A7FB012625
:1088700007FB0E664FEAD25242EA46224FEA25250E
:1088800045F10005F61512F5FA6C46F1000BBCF542
:10889000FA6F7BF100074CDAA2FB02784FF0050A71
:1088A00002FB06F908EB4909A7FB0A780AFB0988CD
:1088B0004FEA570949EAC879BF08B0EB090047EA0F
:1088C000887764EB6804DB1B294F65EBA805BC4582
:1088D0004FF0FF377BEB070720DA40F6AC57D21991
:1088E00046F100065643A2FB027202EB46064FEA2F
:1088F000C608FA00BA1A48EA577866EB0808101852
:1089000044EB08044FF00B08A7FB087208FB06268F
:108910007F0847EAC677DB1B65EB660501FB0EFEA9
:10892000A1FB011202EB4E0EC90F41EA4E01BCEB56
:10893000010C009A92B10D4A516DA1FB032301FB7A
:108940000535520D42EAC522121A4FEA6555009BC1
:1089500065EB0404D20B42EA44421A60019B0BB15E
:10896000C3F800C003B0BDE8F08F00BFBC16012003
:1089700024FAFFFF4FF4006383817047074BD0F860
:1089800094105B68D0F8A0205B1A9342C8BFC0F86F
:10899000A030012380F8CC3000207047001000E0A8
:1089A0004FF4006383817047074BD0F894105B68E5
:1089B000D0F8A0205B1A9342C8BFC0F8A0300123B2
:1089C00080F8CC3000207047001000E04FF40063C6
:1089D00083817047074BD0F894105B68D0F8A020D3
:1089E0005B1A9342C8BFC0F8A030012380F8CC3096
:1089F00000207047001000E038B50446006A0368A4
:108A00001A7B82B9637E0BB9012038BD084D022361
:108A10002A46291D16F070FA687800F00100607689
:108A200080F0010038BD1B6A002BEBD0002038BD60
:108A3000B83E0010F8B50446006A0D4E0568637E26
:108A40002A7B371D7AB983B10223094A394616F0C9
:108A500053FA737803F00103637633B1206A056833
:108A60002A7B002AEFD02A6AECE70120F8BD00BF7C
:108A7000B83E00100123437600207047D0E90A2158
:108A800008B543690B4443610AB10846904700208A
:108A900008BD00BF036A1B681B6A5B685B780246FF
:108AA00013F0010008BF5076704700BF70B5234C2B
:108AB000234A94B00546049204F108020592214A23
:108AC0000992A4F108020A922A7E009400239A4295
:108AD000CDE90E3314BF05220422201D0C922A6A10
:108AE00006930B9310931393019011930123106835
:108AF0008DF80C3007938DF820308DF834308DF8D8
:108B00004830022302930E465AF0B8FB2B7E93B1F5
:108B1000330E04F8073C063C320C330A22706370B3
:108B2000A670286A694616F05DFF2B6A18685AF02D
:108B3000A5FB14B070BD073CEEE700BFC83E0010B7
:108B4000958A0008758A000810B5044694B0502232
:108B5000064968465BF09EFD206A694616F042FFB2
:108B6000236A18685AF08AFB14B010BD0C6F06080F
:108B700082624161704700BF2DE9F8430446006AF4
:108B800000681F46884691465AF078FB237E002BEA
:108B900038D065692648274E052303632B0E73776B
:108BA0001E36B5702B0C2D0A33707570D8F8003056
:108BB000C363012FD9F800304364E3622BD0022F46
:108BC00026D10021D9F80420C16480F84810D8F8D3
:108BD000041001651344184982650125E36280F899
:108BE0005C500166124B617E206A03F11402002979
:108BF00014BF1946114616F0F5FEA36A9BB1E06A50
:108C0000BDE8F8830A4865690C4E04230363C8E78E
:108C10000020BDE8F883084A80F848700023C0E9C6
:108C200013238365DEE7236A18685AF027FBE6E71B
:108C300000000120B83E00107D8A0008D53E0010DB
:108C4000704700BF00B583B041610192049A009360
:108C5000826201236A4601A9FFF78EFF03B05DF827
:108C600004FB00BF043070470430704710B4084C58
:108C7000A06E00EB400004EB001C6C3404EB001011
:108C8000DCF86C406469A4465DF8044B604700BFA3
:108C9000BC160120064B9A6E02EB420203F16C00F7
:108CA00003EB021300EB0210DB6E9B69184700BF59
:108CB000BC1601200430704738B5426911690B6851
:108CC0006FF300030B609368B2F80CC01C68E36894
:108CD00023EA0C03E360046890F810C020680823BE
:108CE00003FA0CF303401CD1144890F8B853022047
:108CF00000FA0CF060609DB1107E012812D0D2F80D
:108D0000A03010460133C2F8A030FFF735FB82686F
:108D10000123126880F89D30D16883890B43D360AA
:108D200038BDFEE7D2F8A40082F89D300130C2F8C9
:108D3000A4000A6863F300020A6038BDF84000101E
:108D40000269C3682DE9F04712EA03092AD00546F3
:108D50000E464FF000474FF00008B9FA89F327FAA2
:108D600003F2D2431B3B2A6109EA0209042B16D8FD
:108D7000DFE803F0332A221A0300B36A002B35D050
:108D800003F1FF3A1FFA8AFAC6F82880746A34B1F0
:108D900023682046514698476468002CF8D1B9F101
:108DA000000FDAD1BDE8F0877068A98E0368984794
:108DB000B9F1000FD1D1F5E7B068298F0368984762
:108DC000B9F1000FC9D1EDE7F068E96B036889B22A
:108DD0009847B9F1000FC0D1E4E73069296C036806
:108DE00089B29847B9F1000FB7D1DBE7E96A1FFAFA
:108DF00081FACBE72DE9F0412F4F07EB401898F8A7
:108E0000D0320BB9BDE8F0814C2303FB00730E4652
:108E100093F8D62388F8B622002183F8D6130446A7
:108E2000450171F09DFBB0BB3D442448A5F8B462F8
:108E300000EB441071F0A0FB97F8B833D5F8CC22C2
:108E40009BB1D5F8B812536F01248C4003F1C001D7
:108E5000420010F4004F90B202D15A6822435A6087
:108E60000C339942F4D1BDE8F081D5F8B842536F84
:108E700004F110020124944003F1C001420010F4F7
:108E8000004F90B202D15A6822435A600C33994283
:108E9000F4D1BDE8F0810A4B93F82C2102EB420299
:108EA00003EBC203234493F8D960002EBCD0012306
:108EB00088F8B632B8E700BFF8400010AC430010A5
:108EC000BC1601202DE9F04FC14F97F8B84385B08B
:108ED00024B90124204605B0BDE8F08FBD4BD3F87E
:108EE000305118F03BF997F86C36002B00F07C817C
:108EF000B94AA2FB0532B94B5209A3FB0213DB08A6
:108F000003EB8303A2EB4303DAB20192D7F83426D2
:108F100007F27468821A07F5757508EB830B07F67C
:108F200054130092039500269A4610E0284671F0EB
:108F30003FFB97F86C360136B34208F15C080BF141
:108F40005C0B0AF1140A05F14C0540F3C580009A48
:108F5000002A03DB2B6B934200F324814C2303FB99
:108F6000067393F80034002BE0D0AB68A9891A6827
:108F70002B6C5B681FFA83FED368CEF1160E23EAD2
:108F80000103BEF1070FD360D0D9D7F85C390133A4
:108F9000C7F85C39AB6C02939C4600225CF8044B2A
:108FA000012191461BE0DCF80000B9F1140FA0EBA1
:108FB00004031DDC13F1080448BF03F11704231157
:108FC00009EB24190446581E013102FA03F3012269
:108FD00082408E4542EA03020CF1040C08D38E4510
:108FE000E1D8C9F11503DCF800404FF01509EAE7B4
:108FF000B9F1150F66D17A48C2F38423C2F3441144
:1090000000EB830300EB8101D3F8D833D1F8D813F8
:109010001B0243EA011302F01F0100EB8101C2F3BE
:10902000C43200EB8202D1F8D813D2F8D8230B4314
:1090300043EA023383EA132282EA121202F00F0299
:109040000F2A3FD1C3F30F134FF6FF72934239D06B
:10905000B3F5606F00F0AB80AAF80C3098F8582098
:109060000198824214D0DBF80810D8F80020521A78
:10907000C8F80020DBF83010D8F80420521AC8F8DD
:1090800004200022CBF80820CBF8302088F85800C4
:10909000D8F800200132C8F80020DBF8082001329F
:1090A000CBF808204FF6FF7293427FF43FAFD8F819
:1090B00004300133C8F80430DBF830300133CBF82A
:1090C000303033E7D7F858390133C7F85839002E14
:1090D00060D04FF6FF73C1E70121002287F85A1ACA
:1090E000C7F83426002B3FF4F4AE03EBC30203EBC6
:1090F0004203039A02EB8303117C906811F0020F84
:109100004179006830D049000139C9B2062909D82F
:10911000DFE801F01B162520110C0400016A41F460
:10912000805101624C329342E6D1D2E6016A41F4A9
:1091300080610162F6E7016A41F480710162F1E742
:10914000016A41F004010162ECE7016A41F00101AA
:109150000162E7E7016A41F040010162E2E7016A6A
:1091600041F010010162DDE701394900C9B2062969
:10917000D8D801A454F821F04B910008419100087F
:109180005F91000855910008379100082D91000863
:109190001D9100080299134858225BF07BFA4FF6A4
:1091A000FF735BE70024204605B0BDE8F08F094956
:1091B00091F82C2102EB420201EBC202324492F8F8
:1091C000D9200D2A7FF448AF80228AF81E2045E777
:1091D000F8400010BC1601201F85EB51CDCCCCCC43
:1091E000846B0608F84A0010012287F85A2AC7F84B
:1091F00034366FE638B571F0EBF9002800F09B814A
:10920000654B93F85C1A002900F0C48093F8D023D2
:10921000002A40F0C380D3F8600A046862F3C714E0
:109220000460B3F8644AC462046844F080040460D3
:109230004262C568B3F8744A012944EA0504C4606F
:10924000A3F8742A00F0A680D3F8780A046862F3C1
:10925000C7140460B3F87C4AC462046844F0800414
:1092600004604262C568B3F88C4A022944EA0504E6
:10927000C460A3F88C2A00F08D80D3F8900A0468AB
:1092800062F3C7140460B3F8944AC462046844F0FB
:10929000800404604262C568B3F8A44A032944EA22
:1092A0000504C460A3F8A42A74D0D3F8A80A0468FB
:1092B00062F3C7140460B3F8AC4AC462046844F0B3
:1092C000800404604262C568B3F8BC4A042944EAD9
:1092D0000504C460A3F8BC2A5CD0D3F8C00A0468B3
:1092E00062F3C7140460B3F8C44AC462046844F06B
:1092F000800404604262C568B3F8D44A052944EA90
:109300000504C460A3F8D42A44D0D3F8D80A04686A
:1093100062F3C7140460B3F8DC4AC462046844F022
:10932000800404604262C568B3F8EC4A062944EA46
:109330000504C460A3F8EC2A2CD0D3F8F00A046822
:1093400062F3C7140460B3F8F44AC462046844F0DA
:10935000800404604262C568B3F8044B072944EAFC
:109360000504C460A3F8042B14D0D3F8081B0868C4
:1093700062F3C7100860B3F80C0BC862086840F0CD
:10938000800008604A62CC68B3F81C0B2043C860B8
:10939000A3F81C2B38BD00BFF8400010D3F8684A72
:1093A000D3F8602AB3F86C0A6060906C4FF0030C3D
:1093B0006CF30C209064956C0D2060F304059564AB
:1093C000D56845F48075D5602268012942F0010214
:1093D0002260DFD0D3F8804AD3F8782AB3F8845AD1
:1093E0006560956C6CF30C259564956C60F30405D1
:1093F0009564D56845F48075D5602268022942F0ED
:1094000001022260C6D0D3F8984AD3F8902AB3F864
:109410009C5A6560956C6CF30C259564956C60F3B3
:1094200004059564D56845F48075D560226861456A
:1094300042F001022260ADD0D3F8B04AD3F8A82A96
:10944000B3F8B45A6560956C6CF30C259564956C13
:1094500060F304059564D56845F48075D56022688D
:10946000042942F00102226094D0D3F8C84AD3F80C
:10947000C02AB3F8CC5A6560956C6CF30C259564E2
:10948000956C60F304059564D56845F48075D560E6
:109490002268052942F0010222603FF47BAFD3F835
:1094A000E04AD3F8D82AB3F8E45A6560956C6CF3B7
:1094B0000C259564956C60F304059564D56845F4B6
:1094C0008075D5602268062942F0010222603FF4CF
:1094D00061AFD3F8F84AD3F8F02AB3F8FC5A6560C4
:1094E000956C6CF30C259564956C60F3040595649C
:1094F000D56845F48075D5602268072942F00102DD
:1095000022603FF447AFD3F8102BB3F8141BD3F805
:10951000083B5160996C6CF30C219964996C60F371
:1095200004019964D96841F48071D960136843F0EB
:109530000103136038BD56F057FE00287FF460AE7B
:1095400038BD00BF2DE9F04171F042F898B31D4ECF
:109550003568002D14DD002496F8B883301D2746A9
:10956000B8F1000F1FD0037E012B1FD002691368D2
:10957000013443F00103AC4200F1AC001360EFD1C1
:1095800017F0ECFDD6F8204B002C0ADD0E4B03EB58
:10959000C40419689A88C86808330243A342CA60A1
:1095A000F7D1BDE8F081FEF7BFFEDFE780F89C70E1
:1095B000FEF7BAFEDAE756F017FE0028C7D1BDE87D
:1095C000F08100BFF84000101C4C001010B504469C
:1095D0005AF02CFB81B22046BDE810400AE400BFDF
:1095E0002DE9F84317F0BAFD204F214E05464FF004
:1095F00000094FF0AC083C68002C2ADD00231A4615
:1096000008FB0371013391F8A1109C4242EA010268
:10961000F6D142EA0904E4B291467368C3F3080341
:10962000A3B9EFF311838BB91AF010FF431BB3F505
:10963000FA6F02DCB9F1000FDDD124B10D4B93F8C4
:109640003421542A09D02046BDE8F88317F058FD8C
:10965000ECE74C464FF00009DFE7B3F83C2101325C
:10966000A3F83C212046BDE8F88300BFF840001075
:1096700000ED00E0BC1601202DE9F04F4F4F97F8A8
:10968000B83383B01BB9012003B0BDE8F08FDFF819
:1096900038B14B49DBF830214A4CA1FB0232520968
:1096A000A4FB0234E40804EB8404D7F8B433009339
:1096B000A2EB4404E3B207F27465019305EB840462
:1096C000002607F6541907F52D784FF6FF7A30E09B
:1096D000B0F5606F62D0A9F80C0095F85820019B96
:1096E0009A420CD0A1682A68521A2A60216B6A68D3
:1096F000521A6A600022A260226385F858302A68F4
:1097000001322A60A268504502F10102A26005D12F
:109710006A6801326A60226B013222630136082EC8
:1097200005F15C0504F15C0409F1140908F1200855
:109730002DD0009BB3422ADDD8F81800D8F80420B9
:10974000D0E9250170F004FF4FF6FE7398429BF8B4
:10975000342114D0542A04D1BBF838210132ABF89B
:109760003821D7F85C29504502F10102C7F85C297D
:10977000AED1D7F858290132C7F85829ADE7542A95
:10978000CCD1BBF83A210132ABF83A21C6E701232C
:10979000012087F85A3A03B0BDE8F08F9BF82C21DE
:1097A00002EB42020BEBC202324492F8D9200D2A9E
:1097B00091D1802289F81E208FE700BFF840001069
:1097C0001F85EB51CDCCCCCCBC160120F0B5846804
:1097D000617901394900C9B2054687B02068072977
:1097E00007D8DFE801F05C065F06620665040A231D
:1097F000436703686FF3000303600023049302933D
:109800000093012303930193062259F05DF86379D5
:109810002268013B5B00DBB2062B0DD8DFE803F0CA
:10982000046B4B7054665D00136A43F001031362CE
:10983000936943F008039361207938B9AB681A68DB
:10984000136843F00103136007B0F0BD0609013E41
:10985000072E00F00F001DD82C4F07EB4603B3F87E
:10986000D81441FA00F3DB0714D5012303FA00F002
:10987000013808403E445BF089FF96F8E83418440C
:10988000234B03EBC0005422C280227A0A2116F037
:10989000BDFF2268536C43F400435364CEE70A23B0
:1098A0004363A6E70A238363A3E70A23C363A0E70E
:1098B0000A2303649DE7136A43F01003136293695C
:1098C00043F400639361B7E7136A43F48073136250
:1098D000D36943F00803D361AEE7136A43F48053BE
:1098E0001362D36943F40063D361A5E7136A43F4B9
:1098F00080631362A0E7136A43F0040313629BE7DB
:10990000136A43F04003136296E700BF846B0608B6
:10991000081801202DE9F0430546006A354C00681F
:1099200095B00E469146984659F0A8FC324B0493E8
:1099300004F12C03009304F130030193297E0223E8
:10994000029304F12402012300278DF80C300592C4
:109950000697002936D08DF834308DF84830CDE99F
:109960000977330ECDE90E77CDE9107784F82530ED
:109970000523CDF82C908DF82070CDF8308013970A
:1099800026340793330C1D4F2370330A6370A6707F
:10999000D7F8E4022C6A16F05BF96B7EA08033BB2B
:1099A00005A9204616F01EF82B6A186859F066FCC7
:1099B000D7F8E80216F04CF92B6A9880404615B0AB
:1099C000BDE8F0838DF834308DF848300423CDE9BC
:1099D0000911CDE90E11CDE91011CDF82C908DF8BB
:1099E0002010CDF83080139125340793CAE76946DB
:1099F000D7E700BFB83E0010958A0008BC160120CA
:109A000007B500238DF807300DF1070201230F2160
:109A100015F018F828B19DF807306C2B14BF002002
:109A2000132003B05DF804FB07B500238DF8073061
:109A30000DF1070201230F2115F004F828B19DF85C
:109A400007306A2B14BF0020122003B05DF804FB1E
:109A500038B500224E21054615F096FA15249620B9
:109A60001AF0BEFDF521284616F09AF8422807D0D4
:109A7000472807D0013C14F0FF04F0D1204638BD40
:109A80000C24FBE70D24F9E710B51C4615F07CFA11
:109A90002046BDE810401AF0A3BD10B5044680680A
:109AA00016F006F901201AF09BFDA06816F006F9E1
:109AB000BDE810400A201AF093BD2DE9F743054692
:109AC00000F11004934816F0C3F8A88295F8D1006D
:109AD00044F23B33A5F8FC3000283AD00709013F97
:109AE000072F00F00F0000F2EC80DFF8408208EB57
:109AF0004703B3F8D82442FA00F616F0010615D051
:109B0000012303FA00F00138104047445BF03EFEA9
:109B100097F8E834804A184402EBC00652F8303017
:109B2000B2881B691A4214D12623F38029467B4B45
:109B300041F80C3F304656F047FF56B1B388B3FAB0
:109B400083F24FF00043D34003D075490A681343B2
:109B50000B6042F21F53A5F8FC300022762120460C
:109B600015F012FA00224E21204615F00DFA95F854
:109B700088906C4BB9F10C0F93F8ED3240F0A38054
:109B8000012B00F0B080022B15BF062603264FF4F0
:109B9000DC774FF4786714BF4FF015084FF03F089B
:109BA00001227621204615F0EFF942460C2120468D
:109BB00015F0EAF907F0FC020D21204615F0E4F952
:109BC000320142EA17220E21204615F0DDF9B9F1E3
:109BD0000C0F14BF4FF006084FF015084FF00202AB
:109BE0004FF07601204615BF24274FF4DC770A2674
:109BF000062615F0C9F94FEA48020321204615F060
:109C0000C3F907F0BC020421204615F0BDF932016A
:109C100042EA17220521204615F0B6F900227621E6
:109C2000204615F0B1F9FF225221204615F0ACF97B
:109C300003221421204615F0A7F9002263212046B3
:109C400015F0A2F908226521204615F09DF9E421BE
:109C5000204615F0A5FF00F0EF0040F060026421FF
:109C6000204615F091F90F224E21204615F08CF96F
:109C700001201AF0B5FC95F88B30002B45D095F8F3
:109C8000D030013343F00103B3FA83F3C3F11F0370
:109C9000032B3ADC244AD25C02F00F024F2120460B
:109CA000019215F071F90F201AF09AFC2046019AE2
:109CB000502115F069F90F2003B0BDE8F0431AF008
:109CC0008FBC002632E7022B13D0032B17D0012BB9
:109CD00015BF0A2608262427902714BF4FF0060830
:109CE0004FF00C085CE704264FF4C0674FF02708DC
:109CF00056E706264FF4DC774FF0150850E70426A8
:109D00004FF4AC674FF025084AE7002385F88B3005
:109D10000622C1E700366E0108180120EDC70008D1
:109D2000003C0140BC160120AC140708846B0608F7
:109D30003122F42158F00AB810B50446006857F0F3
:109D40003BFF38B92046044A0623F72159F0D8FAD8
:109D5000012010BD0020FCE7B444001008B50368E2
:109D60001A78012A06D00D4A0623002159F0C8FAB4
:109D7000012008BD93F90430094A5C2101FB03224C
:109D800092F8501301F0FF0309B1002008BDD2F88A
:109D90003C2392691204E6D5184608BDE41601205A
:109DA000BC160120582157F01FBF482157F01CBF97
:109DB00010B50446006857F0FFFE014690B92368CD
:109DC0001A78022A08D1196A21B9074A03232046C2
:109DD00015F0B4FD012006E0034A0323204659F0A4
:109DE0008FFAF7E7002010BDBC440010E0E707B58C
:109DF0000023ADF8043001AA022315F025FE08B1B6
:109E00009DF8050003B05DF804FB10B50446FFF7AC
:109E100044FE00212046FFF7EAFF24280CBF0F2054
:109E2000002010BD07B5094BB3F8F02493F8F234C5
:109E3000ADF804208DF8063001AA032315F004FEC6
:109E400008B1BDF8050003B05DF804FB846B06089B
:109E50002DE9F3411F46089B019390460E460546A7
:109E6000FFF7C5FF044602201AF014FB24EA080499
:109E700044EA0702019BD2B23146284602B0BDE84F
:109E8000F04101E62DE9FF4100F110046423B62200
:109E90007E2190F8CE7006462046FFF7F5FD20465D
:109EA000FFF7FBFD012300227C212046FFF7ECFD9C
:109EB0000123002259212046FFF7E6FDA74A4FF46F
:109EC00000535E21204615F017FE0A201AF088FB89
:109ED00001234FF00A081A4659212046FFF7D4FD06
:109EE000002301227C212046CDF80080FFF7B0FF3F
:109EF00080231A4677212046CDF80080FFF7A8FF7F
:109F000004231A467D212046CDF80080FFF7A0FFEC
:109F100004231A4669212046CDF80080FFF798FFF8
:109F2000434601222F212046FFF7AEFD3221204675
:109F3000FFF778FF054602201AF0ACFA45F480706E
:109F400000B28DF80C00C0F30720022303AA3221CF
:109F50008DF80D00204615F0CFFD40461AF040FB6D
:109F600041F2883302227E212046FFF78DFD6921D0
:109F70002046FFF73CFF0625002840F0E9806420DA
:109F80001AF02EFB2F21204601230022FFF77CFD33
:109F900038212046FFF746FF10B90A201AF020FBAF
:109FA000012300227D212046FFF76EFD01230022C0
:109FB0006B212046FFF768FD032F1DD101230022EE
:109FC00048212046FFF760FD0123802249212046D9
:109FD000FFF75AFD0123002245212046FFF754FDDB
:109FE0000123062246212046FFF74EFD01230022D1
:109FF00047212046FFF748FD01239B2240212046B0
:10A00000DFF86481FFF740FD032201234121204650
:10A01000FFF73AFD98F8ED32013BDBB2022B9BBF14
:10A020004F4A9B18002293F8F324120162F0320287
:10A03000012302F0FD0242212046FFF725FD082200
:10A04000012343212046FFF71FFD032F0CBF0222EF
:10A050000422012358212046FFF716FD01230A227E
:10A0600053212046FFF710FD012302227C212046C8
:10A07000FFF70AFD01230E227D212046FFF704FD94
:10A0800001231A462F212046FFF7FEFC34212046EB
:10A09000FFF7C8FE054602201AF0FCF945F40073EC
:10A0A0001BB28DF80C30C3F3072303AA34218DF8BB
:10A0B0000D302046022315F01FFD012501201AF066
:10A0C0008FFA4023C022772120460095FFF7C0FE7B
:10A0D0002B4600222F212046FFF7D6FC032F05D167
:10A0E0002B46B0227E212046FFF7CEFC3C212046A5
:10A0F000FFF77DFE00F07F03420648BF803B96F8E5
:10A10000D1005BB288F8283478B116F0A1FC04467F
:10A1100008B12623C3803146124B41F80C3F20463C
:10A1200056F052FC204616F049F955F0B3FBB082C8
:10A1300004B0BDE8F08169212046FFF758FE804653
:10A140004FF47A701AF04CFAB8F1000F3FF417AFE1
:10A15000013D15F0FF05EED111E700BF347B060885
:10A16000846B060821CB0008BC1601202DE9F743BB
:10A17000144698460DF107020123DDF828900646A3
:10A180000F4614F05FFCA0B102201AF083F99DF88D
:10A19000075025EA040444EA0802394630468DF89F
:10A1A000072059F0B7F9B9F1000F02D048461AF06C
:10A1B00017FA03B0BDE8F083F7B5642300F110048B
:10A1C000009301231A46054612212046FFF7CEFFD1
:10A1D000002680231A460B2120460096FFF7C6FF73
:10A1E00002220D21204659F095F901201AF0F8F9C4
:10A1F00032460E21204659F08DF901201AF0F0F96F
:10A2000076221021204659F085F901201AF0E8F94C
:10A21000AC221121204659F07DF9012701201AF0C6
:10A22000DFF904233C22122120460097FFF79EFF0E
:10A230000E231A46132120460097FFF797FF174B6E
:10A2400093F8ED220097032A9BBF154B9B183346CA
:10A2500093F8F634172215212046FFF787FF0223D3
:10A26000204600971A461821FFF780FF95F8D10085
:10A2700078B116F0EDFB044608B12623C3802946C9
:10A28000084B41F80C3F204656F09EFB204616F046
:10A2900095F855F0FFFAA88203B0F0BDBC16012076
:10A2A000846B060885CF0008F7B5642300F110041D
:10A2B000009301231A46054612212046FFF756FF58
:10A2C000002680231A460B2120460096FFF74EFFFA
:10A2D00002220D21204659F01DF901201AF080F9C3
:10A2E00032460E21204659F015F901201AF078F96E
:10A2F00076221021204659F00DF901201AF070F94C
:10A30000AC221121204659F005F9012701201AF04D
:10A3100067F904233C22122120460097FFF726FF0D
:10A320000E231A46132120460097FFF71FFF144BF8
:10A3300093F8ED220097032A9CBF124B9B182046EE
:10A3400094BF93F8F634334613221521FFF70EFF1E
:10A3500095F8D10078B116F07BFB044608B12623AE
:10A36000C3802946084B41F80C3F204656F02CFB91
:10A37000204616F023F855F08DFAA88203B0F0BD00
:10A38000BC160120846B060871D2000808B590F84D
:10A390002430012B18BF012000D008BD006A58F0FE
:10A3A00071FFC04300F0010008BD00BF38B50C4D7F
:10A3B000044694F82430012B03D00023E3610120EC
:10A3C00038BD206A58F05EFFC04310F00100F4D1A0
:10A3D000D5F83031E2699B1A002BEADB38BD00BFAB
:10A3E000BC1601202DE9F043614D91B004460F46A3
:10A3F000164694F8241001292CD00023E361206A2A
:10A40000062259F07DFB0123637695F82934002B51
:10A410003FD1D7F80090D5F82C84376894F82430D1
:10A42000012B26D00022012BE26170D0D5F830310B
:10A43000A26A0233E3613068D5F82C340121034469
:10A4400085F82914C5F82C340AB19047306811B04A
:10A45000BDE8F083206A58F015FFC10740F1858000
:10A46000D5F83031E2699B1A002BC2DB94F8241036
:10A47000C5E7206A58F006FFC20773D5D5F830311A
:10A48000E2699B1A002BC9DB94F82430012BCDD153
:10A490003DE0D5F82C348DF80230C3F30223D7F811
:10A4A00000808DF80130376884238DF8003094F8EF
:10A4B0002430012B1BD00022012BE261B6D108977A
:10A4C000276A8DF824308DF838300023CDE90A331F
:10A4D000CDE90C33CDF8188001A902938DF8103026
:10A4E000059307930F933846CDF804D02FE0206AE8
:10A4F00058F0C8FEC30732D5D5F83031E2699B1A4F
:10A50000002BD4DB94F82430012B8FD1D7E7002225
:10A510000897CDE90A22276A8DF80280CDE90C223E
:10A52000C8F302288DF824308DF838300223CDF896
:10A5300018908DF80180CDF804D002928DF810208B
:10A540000592079201A90F928DF800303846032337
:10A55000039315F047FA386858F090FE66E794F8D0
:10A560002430A8E794F824305CE794F8241044E7FA
:10A57000BC16012033B910B51C46836A20469847A3
:10A58000204610BD2EE700BF70B5194D04460E469B
:10A5900094F82410012910D00023E3610622206AD8
:10A5A00059F0AEFA94F8243001229342627612D028
:10A5B000D5F830310F33E36170BD206A58F062FE88
:10A5C000C30712D5D5F83031E2699B1A002BDFDBC7
:10A5D00094F82410E2E7206AF20AD82159F046FAEA
:10A5E000D5F830310F33E36170BD94F82410D3E710
:10A5F000BC1601208388002B5BD02DE9F04F00268C
:10A600002E4D8DB0044637464FF006084FF0010935
:10A6100094F824A0BAF1010F14D0BAF1010FD4F8C4
:10A6200020B0E7618DF8078020D084F81990D5F824
:10A630003031A28801360F33B242E361E8D80DB061
:10A64000BDE8F08F206A58F01DFEC30732D5D5F85B
:10A650003031E2699B1A002BDADB94F824A0D4F89D
:10A6600020B08DF80780BAF1010FDED10DF107039C
:10A6700002A958460293CDE9037ACDE90677CDE9E0
:10A6800008778DF814A08DF828A00B9715F0AAF97B
:10A69000DBF8000058F0F2FD94F8243084F819A09B
:10A6A000012BC4D17204206AD20AD82159F0DEF9F4
:10A6B000BDE7704794F824A0AFE700BFBC160120A7
:10A6C00070B51D4D95F8293423B1D5F82C34C3F35A
:10A6D0000A0303B170BDD5F83064184BF60A04467E
:10A6E0009E6794F82430012B0FD00022E261012BE9
:10A6F00019D0D5F83031D5F82C24C5F830240233E0
:10A700000021E36185F8291470BD206A58F0BAFD74
:10A71000C3070ED5D5F83031E2699B1A002BE0DB78
:10A7200094F82430E3E7206A3246102159F09EF96C
:10A73000DFE794F82430D8E7BC16012000000120A0
:10A7400070B52C4D826295F8293423B1D5F82C349C
:10A750008B4205D170BDC5F82C14C5F8301470BDFE
:10A76000044694F82410012929D00023E361206ACB
:10A77000062259F0C5F90123D5F83064637694F8C0
:10A780002430012B0BD00022012BE26125D0D5F81B
:10A79000303100220233E36185F8292470BD206A3C
:10A7A00058F070FDC3071ED5D5F83031E2699B1A09
:10A7B000002BE4DB94F82430012BE8D10DE0206A73
:10A7C00058F060FDC20711D5D5F83031E2699B1A07
:10A7D000002BC6DB94F82410C9E7206AF20A102186
:10A7E00059F044F9D3E794F82430CCE794F82410D6
:10A7F000BBE700BFBC16012010B582B00446019231
:10A80000049A0093FFF79CFF6A4601A92046FFF7D0
:10A81000E9FD2046FFF754FF02B010BD70B5194D99
:10A8200095F8293403B970BDD5F83064164BF60A93
:10A8300004469E6794F82430012B0BD00022E2617D
:10A84000012B15D0D5F8303100220233E36185F8B1
:10A85000292470BD206A58F015FDC3070ED5D5F820
:10A860003031E2699B1A002BE4DB94F82430E7E7EF
:10A87000206A3246102159F0F9F8E3E794F82430C1
:10A88000DCE700BFBC160120000001201C481D4A67
:10A890001D4938B5121A59F0FDFE1C481C4A1D49C5
:10A8A000121A59F0F7FE1C4A1C49D2F8883043F4BA
:10A8B0007003C2F888300B6843F001030B600B682B
:10A8C0009B07FCD58B68154A6FF301038B60936877
:10A8D00013F00C0FC3F38101F9D1916013680E4896
:10A8E0000F4D23F0867323F4803313604FF41F045D
:10A8F0004FF000635560C2F8A010D460836038BD8B
:10A9000000000010B83E0010F0A50708B83E001087
:10A91000F8400010F705080800ED00E0003802409C
:10A9200002300300BFF34F8F0549064BCA6802F49B
:10A93000E0621343CB60BFF34F8F00BFFDE700BF62
:10A9400000ED00E00400FA0508B572B6FFF7EAFF73
:10A9500010B582B00D4A0023009300920099096857
:10A96000012901D002B010BD09490193CA24532026
:10A9700001924C624862019C064A2360FF204862B3
:10A98000136883F3088853689847FEE75C28004003
:10A99000002800400000FF1F70B5914884B04FF0C0
:10A9A00067FF904A904B1169012060F30201116129
:10A9B000196E02F5E43260F301011966136803436E
:10A9C000136013689907FCD5936888496FF30103F6
:10A9D00093608B6813F00C0FC3F38102F9D10B68FD
:10A9E000834C23F0867323F480334FF41F000B60F5
:10A9F0008A604C60C1F8A020C8600B687D4A43F4AF
:10AA000080330B60D2F800389B0307D44FF44053D7
:10AA1000D2F800188E0301D4013BF9D1D2F80038E6
:10AA20009D03EFD57149734A0B6843F001030B6036
:10AA3000D2F800389C07FBD56C4B6E495A6842F43B
:10AA400080025A605A68482464F38E125A605A6829
:10AA5000012060F303025A605A6860F312425A60A0
:10AA60001A6842F080721A60D1F800389801FBD55C
:10AA70005E4B9A686FF307129A609A68042161F33B
:10AA80004F329A609A6861F38C229A60D3F8A420BE
:10AA900042F03002C3F8A4209A68022060F3010259
:10AAA0009A609A68C2F38102022AFAD1D3F8A420EC
:10AAB0006FF30512C3F8A420D3F8A4200B2161F38F
:10AAC0000F32C3F8A420D3F8A0206FF34D32C3F89F
:10AAD000A0209A6812F00C0FC2F381015DD0022908
:10AAE00067D0454D454BEB67404A45499068EB6F51
:10AAF000444C454EC0F303100144444891F8FC1403
:10AB0000CB40EB67E3684FF6FF010B4043F00523B2
:10AB100043F47A03E360536FC6F8343435493C4B51
:10AB2000A360D1F8343823F00043C1F83438536FB0
:10AB300043F0807353674FF09BFE68464FF028FE4A
:10AB4000009B344A3448A2FB0323D4F8FC209B0C1E
:10AB500042F08072C4F8FC20C6F838344FF06042EE
:10AB60002E4BC2F8B00F002159601A6842F0010262
:10AB70001A60EB6F2A4AA2FB03239B09013BB3F146
:10AB8000807F08D24FF0E022F0205361072384F841
:10AB900023009161136104B070BDD3F8A020164D5D
:10ABA00052049FD5D3F8A030DB049BD51D4BEB6737
:10ABB0009AE75A685A68596858680F4D0F4CC2F3A3
:10ABC0008813C0F30240184A125C01F00F0104FB25
:10ABD00003F312FB01F2B3FBF2F3EB6784E700BF70
:10ABE0001C00400000700040003C02400038024061
:10ABF00002300300003002400000012000127A0001
:10AC0000846B060800ED00E0BC1601201F00300038
:10AC10000000000883DE1B4355CEACC5001000E0E9
:10AC2000D34D6210006CDC02BC1407082F4B984215
:10AC30003AD0B0F1804F3ED0A3F57C4398423ED04D
:10AC400003F5806398423CD003F5806398423AD084
:10AC500003F58063984238D003F58063984236D07C
:10AC600003F57043984234D003F57053984232D0C4
:10AC700003F58063984230D003F5806398422ED06C
:10AC8000A3F5983398422CD003F58063984214D0F2
:10AC900003F58063984226D003F59633984208BFA7
:10ACA0000E2202D0002070470022114B03EBC2039A
:10ACB00093F8100570470122F7E70C22F5E702220E
:10ACC000F3E70322F1E70422EFE70522EDE706228E
:10ACD000EBE70722E9E70822E7E70922E5E70A228E
:10ACE000E3E70B22E1E70D22DFE700BF00000140B0
:10ACF000846B060810B5564C0368E06FB0FBF2F0A9
:10AD0000013989B20138D96298625A69514942F0D1
:10AD100001025A611A686FF309221A601A686FF308
:10AD200006121A601A688B4242F001021A603ED085
:10AD3000B3F1804F72D0484A934273D002F58062DB
:10AD4000934271D002F5806293426FD002F5806227
:10AD500093426DD002F5806293426BD002F570424F
:10AD6000934269D002F57052934267D002F5806237
:10AD7000934265D002F58062934263D0A2F5983287
:10AD8000934261D002F58062934249D002F580621D
:10AD900093425BD002F59632934208BF0E2107D052
:10ADA0000122BDE81040114600204FF043BE0021B3
:10ADB0002A4B03EBC103012293F8114593F91105C6
:10ADC00011464FF037FE1B2C00D010BD244BDA6823
:10ADD000C2F30222C2F10700042802F1040328BFD3
:10ADE0000420062B12D800210A464FF0FF3383407F
:10ADF000DB4303F0010393400B431A4A1B01DBB210
:10AE000082F819334FF00073136010BD033A4FF00E
:10AE1000FF319140C94301F00101E6E70121C7E795
:10AE20000C21C5E70221C3E70321C1E70421BFE7E5
:10AE30000521BDE70621BBE70721B9E70821B7E7F0
:10AE40000921B5E70A21B3E70B21B1E70D21AFE7EF
:10AE5000000001200000014000040040846B06084F
:10AE600000ED00E000E100E0F0B50468534DB5EB03
:10AE7000942F4FEA94230CD3B3F5801F71D3A3F51D
:10AE80008013013B022B00F29480DFE803F07F6B1C
:10AE90006F004B4DAB426DD00135AB4261D14FF0ED
:10AEA000050C4FF4807543790CEB8C0E013BD8B246
:10AEB0000CEB4E0E8644434800296BD0E76802260F
:10AEC00006FA03F300EB8E063B43C6F84014C6F8BF
:10AED0005024B646E360EFF31181502383F31288C8
:10AEE0002C2202FB0C02D2F83C34002B4BD0C2F8CF
:10AEF000603404332C2202FB0C02D2F850541DB1F2
:10AF00001D60D2F8503404332C2202FB0C02D2F81C
:10AF100054541DB11D60D2F8543404332C2202FB6A
:10AF20000C02D2F858541DB11D60D2F858340433C5
:10AF30002C2202FB0C02D2F85C541DB11D60D2F829
:10AF40005C3404330022C9B21A6081F311882C23C7
:10AF500003FB0C00D0F8603483B9E36823F00103ED
:10AF6000E360F0BD4FF0030CA8259CE74FF0040C04
:10AF7000D42598E74FF0000C242594E7E36843F0CC
:10AF80000103E360F0BD104B2B44B3E74FF0020C1C
:10AF90007C2588E7E668022707FA03F326EA03031D
:10AFA000E36000EB8E039E46C3F84014C3F85024C0
:10AFB00091E74FF0010C502575E700BF030010002A
:10AFC00040001000BC160120F81A01200149024877
:10AFD000FDF7B6BEF81A01200000014002494FF00B
:10AFE0008040FDF7ADBE00BF241B0120014902488F
:10AFF000FDF7A6BE501B0120000400400149024895
:10B00000FDF79EBE7C1B012000080040014902485C
:10B01000FDF796BEA81B0120000C00402DE9F04F63
:10B020004FF49A724048414C414D424E424FDFF836
:10B030001481DFF81491DFF814A183B0002159F0D6
:10B04000C3FBDFF80CE1DFF80CC13C4800222BE029
:10B05000B3F1804F3ED0A34245D0AB4245D0B3427E
:10B0600045D0BB4245D0434545D04B4545D05345DF
:10B0700046D033498B4246D001F580618B4245D0A2
:10B08000A1F598318B4244D001F580618B4242D0CA
:10B0900001F580618B4240D001F596318B423FD063
:10B0A0000832B2F5E07F12D05EF822306345CFD18E
:10B0B0004FF0010B416C41EA0B014164436C0832D3
:10B0C00003EA0B030093B2F5E07F009BECD103B0E1
:10B0D000BDE8F08F0123016C19430164016C0B4042
:10B0E0000193019BDCE70223F5E70423F3E7082340
:10B0F000F1E71023EFE72023EDE74FF0020BD9E74C
:10B100004FF4803BD6E74FF4003BD3E74FF4802B5E
:10B11000D0E74023DFE78023DDE74FF48073DAE7F1
:10B120004FF4801BC6E700BFF81A0120000400405E
:10B1300000080040000C00400010004000380240B1
:10B140000044014000140040000401400040014060
:10B1500008710608000001400348D0F88C300BB19C
:10B1600080301847704700BF000001200348D0F826
:10B17000B0300BB1A4301847704700BF0000012069
:10B180000348D0F8D4300BB1C8301847704700BF1F
:10B19000000001200348D0F8F8300BB1EC3018471C
:10B1A000704700BF000001200348D0F81C3113B1E4
:10B1B00000F5887018477047000001200348D0F858
:10B1C000403113B100F59A70184770470000012014
:10B1D0000348D0F8643113B100F5AC7018477047DC
:10B1E000000001200348D0F8883113B100F5BE708B
:10B1F00018477047000001200348D0F8AC3113B164
:10B2000000F5D07018477047000001200348D0F8BF
:10B21000D03113B100F5E2701847704700000120EB
:10B220000348D0F8F43113B100F5F47018477047B3
:10B23000000001200348D0F8183213B100F5037064
:10B2400018477047000001200348D0F83C3213B182
:10B2500000F50C7018477047000001200348D0F833
:10B26000603213B100F515701847704700000120D7
:10B2700010B501380B4C0C4B00EBC00004EB800404
:10B28000D4F8800098420CBF3620382055F028F8BA
:10B29000D4F88020D2F8003143F00103C2F8003125
:10B2A00010BD00BF0000012000640240F8B5013865
:10B2B000124C00EBC00004EB80041E461048D4F88A
:10B2C000803083420CBF3620382015460F4655F09B
:10B2D00007F8D4F88000D0F8003143F00103C0F83B
:10B2E000003194F99100C4F88C70C5F30112A909DA
:10B2F000C4F89460BDE8F8404FF09CBB000001200A
:10B30000006402402DE9F04F87B0B24BB24EB34D0E
:10B31000B34C02934FF000094F46DFF8DC82DFF8B0
:10B32000D4A20023B6EB982F01934FEA98232CD395
:10B33000B3F5801FC0F04281A3F58013013B022BBF
:10B3400000F29083DFE803F00C022E00A54B93F887
:10B350008135012B0CD0022B0AD04FF0040B36E0C4
:10B36000A04B93F88135012B02D0022B40F04E8385
:10B37000019B0133082B019300F09A805AF8208F2B
:10B38000B6EB982F4FEA9823D2D2AB4214D0A34207
:10B39000944B93F8813540F05C83012BE8D04FF05B
:10B3A000080B14E08F4B93F88135012BE0D0022B72
:10B3B000DED04FF0050B0AE08A4B93F881B5BBF164
:10B3C000010F04D0BBF1020FD2D04FF0010B4FF0B0
:10B3D00001091FFA89F1584619F0D6FC19F08AFDC7
:10B3E000037813B1542B40F0188109F10109B9F128
:10B3F000050FEED137B34FF0000C764A002190686C
:10B40000D0F800E0B6EB9E2F4FEA9E23C0F0CB8031
:10B41000B3F5801FC0F0D080A3F58013013B022B51
:10B4200000F21B83DFE803F0BD02B20004235B459A
:10B4300000F0B0800131B94202F1AC02DFDBBCF1B7
:10B44000000F95D1DAF80C00674B002205E00132BD
:10B450000E2A03F10C0300F0028359688842F6D1EA
:10B460009AF8051052B2404614F046FF5F49426810
:10B47000002384464868824200F0C28001330E2BCC
:10B4800001F12401F6D160464FF0FF33584A03EB37
:10B49000C30302EB830393F89830002B7FF468AF6B
:10B4A000029A836801995361524B03EB41139360F5
:10B4B000029B0137AC33042F02937FF42EAFDFF8E9
:10B4C0003C8108F6CC0308F6BC424FF0010BA8F50E
:10B4D0002D7703929946D7F8B4230BF1FF339A42A4
:10B4E00051DDD8F80C60002E00F0AE823068B588CF
:10B4F00000F13F40B5FA85F500F57E00C5F11F0368
:10B500000193800A3C68002C40F38F80314A00236D
:10B5100005E00133A34202F1AC0200F0848011681F
:10B520008142F6D1019A2B49C8F80420AC2202FBD3
:10B530000315C8F818505FFA8BF216B1F2710322A6
:10B54000B2714046FCF774FE97F8B823002A5CD02D
:10B55000019B686F012202FA03F189B2FCF7F8FD42
:10B5600028460BF1010BFCF7DFFE0123BBF1090FAD
:10B5700088F81C3088F81D3089F8113008F120084F
:10B5800009F11809A7D107B0BDE8F08F05235B4585
:10B590007FF450AF43799AF8050098427FF44AAFA0
:10B5A000E6E6032343E7AB4204D0A3420CBF0823E3
:10B5B00000233CE701233AE7002338E7094B93F8DF
:10B5C0008135012B3FF4D4AE022B3FF4D1AE4FF0C6
:10B5D000000BFCE6FC4000100300100040001000CF
:10B5E00041001000BC1601207802012080000120DB
:10B5F000000001200878060800040140AC43001058
:10B600000133DBB26046013B40E7019B686F0121DB
:10B61000994089B2FCF79CFDA2E74FF0010C002F86
:10B620007FF4EBAEA4E6032B4EDCAC2202FB0472EB
:10B63000D368002B00F0018250605421013082F861
:10B64000AD0082F8AC10621C3A60734AD96892F877
:10B650009525029298F8102004927048002205E087
:10B6600001320E2A00F10C0000F0F9814568A94270
:10B67000F6D159791868DFF8D8A152B214F03CFE1F
:10B68000D0E90103AC2202FB0472C2E90503514672
:10B6900000234A6890421CD001330E2B01F1240193
:10B6A000F7D15F4B93F87420A246002A00F0B681D0
:10B6B0005C495D4A5D4BC7F8681BC7F8602BC7F84B
:10B6C000703B07B0BDE8F08F534A032382F89435EE
:10B6D000EEE75A1CD2B2524B013A02EBC20203EB24
:10B6E0008202AC2392F89800059004FB03F3F9184A
:10B6F0000546B1F8AC00002DDAD1A2F898005A1036
:10B7000002EBA302C2EBC21202EB8232920102EB05
:10B71000A3024748520002EBA302C518454B02EBB7
:10B72000420000EB00104FF08C0C03EB8000039BF9
:10B730000CFB02F203EB420233688B60384B8867E4
:10B74000C1E9262C3322CA67D96F029B062B00F071
:10B750007181072BDFF8FCC0374B3848384A04BFEB
:10B7600018466246B1FBF2F2B1FBF0F0511EAC227A
:10B7700002FB047289B20138A2F88000A2F86010BE
:10B7800028460292FCF722FEFEF720F8029A506942
:10B790000022DAF80430984202F1010200F0398107
:10B7A0000E2A0AF1240AF4D14FF0FF3A1C4B254926
:10B7B0000AEBCA0203EB82020292D2F880008842AE
:10B7C0000CBF3620382054F08BFD029AD2F880004E
:10B7D000D0F80011AC2241F0010102FB0472C0F864
:10B7E0000011D0684279D0F800E0013AD2B2032AC1
:10B7F0009CBF154901EB42024FEACA0398BFB2F859
:10B80000841D02934FF0AC0202FB047288BF00213A
:10B8100011820E4B002226E0BC1601207802012086
:10B820000000012065F0010861F001086DF00108D9
:10B83000FC400010384D00101055220044950800BF
:10B84000D0DD060000640240846B06081C4C00102A
:10B850008000012040771B00864500F0F380013214
:10B86000042A00F00B8153F832000028F4D1D7F8F5
:10B87000200B0130C7F8200B07EBC200D200C0F844
:10B8800024EB1A440598B2F804C041EA0C019180F7
:10B890002B467C499022FFF709FD029A7A4B5244CD
:10B8A00003EB8202AC2101FB0474D2F8A020A16951
:10B8B000106861F3060010606269116841F00201CE
:10B8C00011604FF4807C4FF440731021A5F86CC0D8
:10B8D000A5F87030A5F86810B4F87CE0A5F86AE027
:10B8E000A068022100F1180385F86E102B66103055
:10B8F0000290A06F85F86F106866059010684BF68F
:10B90000EF7A00EA0A001060106840F01000106042
:10B91000106840F440501060106861F38B20106094
:10B92000106861F309201060116841F08001116016
:10B9300011686FF38611116011686FF34511116082
:10B9400051686EF30F01516005999360D1601168E1
:10B95000E96151682962916869620020D168A96231
:10B960004FF44073A5F89030A5F88CC0A5F8880076
:10B97000B4F89CC0029BA5F88AC0012185F88E10FE
:10B98000C5F88030D4F8983085F88F101468C5F861
:10B99000843004EA0A04146014681460146844F4DF
:10B9A00040541460146861F38B241460146861F3CC
:10B9B00009241460116841F080011160116860F37E
:10B9C00086111160116860F34511116051686CF3C4
:10B9D0000F01516002989060D3601168E96251686C
:10B9E000296391686963D168A9631168049B41F078
:10B9F0000201116088F81030019BC8F80430C8F8C3
:10BA00000C605FFA8BF2C8F8185097E54FF0030B03
:10BA1000DDE4D3B2059303F1FF3AC7E6AC2202FBA3
:10BA20000A7292F8AD1092F8AC2083F8742083F873
:10BA300075103DE61548164A94E6164A022382F828
:10BA4000943535E6D2001CE74FF0FF3301931846DA
:10BA500058E5012B7FF4B8AD8AE40223E7E4002324
:10BA60005B68FFDE0B4B93F88135012B3FF480AC14
:10BA7000022B3FF47DAC4FF0020BA8E400239B881F
:10BA8000FFDE00BFB98C000800000120882A1100E9
:10BA9000A0BB0D00BC160120284AD2F89833996942
:10BAA000C80509D54FF48071132082F8AC03D96121
:10BAB000196821F0800119609969890509D54FF449
:10BAC0000071132082F8AC03D961196821F080015C
:10BAD00019609969480509D54FF48061132082F8EF
:10BAE000AC03D961196821F08001196099690905D1
:10BAF00009D54FF40061132082F8AC03D9611968AD
:10BB000021F0800119609969C80409D54FF480516A
:10BB1000132082F8AC03D961196821F08001196003
:10BB20009969890409D513204FF4005182F8AC03B8
:10BB3000D9611A6822F080021A607047BC16012091
:10BB40008A4BD3F8A42310B4072A0DD8DFE802F0FB
:10BB5000484831310F0F0404D3F898239169CC067B
:10BB600040F195801023D3615DF8044B7047D3F802
:10BB700098239169C80657D51021D161116841F009
:10BB8000200111609169890701D5002191629169B5
:10BB9000CC0703D4916941F001019161B3F8A2236C
:10BBA00092B2002AE0D0112283F8AC235DF8044B56
:10BBB0007047D3F898239169CC0640F1BA80B3F866
:10BBC000A2339BB2002BCDD19169890748BF936204
:10BBD0009369DB07C6D4936943F001039361C1E71E
:10BBE000D3F898239169C80600F19C8091698C076D
:10BBF00000F1F3809169080600F10381916949071A
:10BC000000F1A880916911F0400100F0B380B3F811
:10BC1000A2339BB2002BA7D153689B01A4D45368D5
:10BC200043F4804353609FE7916911F0800100F075
:10BC3000A180116821F040011160B3F8A21389B20C
:10BC4000002991D05068B3F8A2C31FFA8CF1FF29E4
:10BC5000C0F3090040F21381FF21A3F8A013B3F849
:10BC6000A0C3434C516821405FFA8CFC014341EA78
:10BC70000C4141F080715160B3F8C033102B136850
:10BC80000CBF43F4804343F4004313606CE79169B5
:10BC900011F0080166D1906980067FF565AF20201C
:10BCA000D061106820F0FE001060506861F3090058
:10BCB0005060506861F30C305060506861F3174079
:10BCC0005060506861F318605060506861F38A20DA
:10BCD00050609069840748BF91629169C80703D496
:10BCE000916941F0010191619169490716D5D3F835
:10BCF0009C13526A481CC3F89C030A70B3F8A02333
:10BD000092B25AB1B3F8A223013A92B2A3F8A22395
:10BD1000B3F8A023013A92B2A3F8A0230122C3F8FA
:10BD2000A82321E71021D161916989073FF52DAF43
:10BD30002DE79169080715D491698C0700F185807A
:10BD4000916911F00401A6D0B3F8A21389B20029B9
:10BD50003FF40AAFD3F89C13526A481CC3F89C0303
:10BD60000A7041E00823D361FEE600BFBC16012043
:10BD7000009800FC906980067FF5F6AE2020D06127
:10BD8000506861F309005060506861F30C305060F6
:10BD9000506861F317405060506861F3186050605C
:10BDA000506861F38A2050609169CC0644BF10212D
:10BDB000D1619169880744BF002191629169C907E7
:10BDC00003D4916941F0010191611168012021F0D2
:10BDD000F6011160C3F8A803C6E6D3F89C13481C0B
:10BDE000C3F89C0309789162B3F8A223013A92B296
:10BDF000A3F8A223B3F8A023013A92B2A3F8A02398
:10BE0000B2E6B3F8A01389B200297FF4ADAEB3F85F
:10BE1000A21389B200293FF4A7AE5168B3F8A20378
:10BE200080B2FF28C1F309013CD9FF20A3F8A00389
:10BE3000B3F8A003244C53682340C0B20B4343EA39
:10BE4000004343F0807353608EE6B3F8A21389B2C7
:10BE500000293FF489AED3F89C13481CC3F89C0317
:10BE600009789162B3F8A023013A92B2A3F8A02313
:10BE7000B3F8A223013A92B2A3F8A22374E6B3F86E
:10BE8000A213114C89B2A3F8A013B3F8A0C3516850
:10BE900021405FFA8CFC014341EA0C4141F0007102
:10BEA0005160E9E6B3F8A203074C80B2A3F8A003FF
:10BEB000B3F8A00353682340C0B20B4343EA0043E6
:10BEC00043F0007353604FE6009800FCF0B482B07A
:10BED0008DF80730431C63D0022861DC8C4D5C2355
:10BEE00003FB0053D3F83C43002C5DD04FEA410CD8
:10BEF0000DF10701C3F840130221A3F846130021F6
:10BF000083F8501342F21173A1690F0429D45C2302
:10BF100003FB0053B3F8461389B2FF296DD9FF2103
:10BF2000A3F84413B3F844337A4E6168DBB24CEAA9
:10BF3000034331400B4343F0807343F40053636089
:10BF4000A1698E0742F2117335D4A169C9062DD5B6
:10BF50005C23102203FB0053E261112283F850237B
:10BF600007E0013BD0D15C2303FB0053122283F88E
:10BF7000502340F67103A269920607D4013BFAD11F
:10BF80005C2303FB0050122380F850332023E3612D
:10BF9000B5F8963501339BB20020A5F8963500E040
:10BFA000002002B0F0BC70472046FAE7013BDAD02F
:10BFB000A1698E07C9D55C2303FB0053A262B3F8C5
:10BFC0004423013A92B2A3F84423B3F84623013A3A
:10BFD00092B2A3F84623B3F8462392B2002A40D087
:10BFE0004C4AFF2142F21176A769BF0719D4A7690D
:10BFF000FF06ADD4013EF7D1B5E7B3F84613454E81
:10C0000089B2A3F84413B3F844336168DBB24CEA55
:10C01000034331400B4343F0007343F40053636028
:10C020008EE7D3F84063771CC3F840733678A66276
:10C03000B3F84463013EB6B2A3F84463B3F8466371
:10C04000013EB6B2A3F84663B3F84463B6B21EB974
:10C05000B3F84663B6B246BBB3F84663B6B2002E39
:10C06000C0D142F21173A269960606D4A269D10624
:10C070003FF56EAF013BF6D175E72023E3616368BE
:10C080006FF30903636063686FF30C336360636885
:10C090006FF31743636063686FF3186363606368EB
:10C0A0006FF38A23012063607BE742F21176A76970
:10C0B0003F0606D4A769FF063FF54AAF013EF6D119
:10C0C00051E7B3F84663B6B2FF2E0ED9A3F8441376
:10C0D000B3F84463F7B26668164046EA0C0646EACF
:10C0E000074646F080766660B6E7B3F84663B6B2B8
:10C0F000A3F84463B3F84463F7B26668164046EAAF
:10C100000C0646EA074646F000766660A4E700BFE4
:10C11000BC160120009800FCF8B5B24D05EB0017E5
:10C12000D7F89835002B00F0C9800446060197F82F
:10C13000A20554F0D5F897F8A23503F01F025B0969
:10C140000121013B01FA02F2042B0BD8DFE813F0C6
:10C15000DF000500E500EB00F100A34B596921EA7F
:10C1600002025A61AB19013493F89C0514F070FC7B
:10C17000E4B2074610B112238371C471AB1993F86E
:10C180009D0514F065FC10B11323C4718371AB19C4
:10C1900093F89E0514F05CFC10B11423C4718371F4
:10C1A000AC19262194F89F25384614F0A3FA94F888
:10C1B0009D0514F04DFC94F8A025262114F09AFA60
:10C1C00094F89E0514F044FC94F8A125062114F07F
:10C1D00091FAD4F89835854A934200F0C880844A91
:10C1E000934200F0AC80834A934200F0E580824A9B
:10C1F000934200F0EC803544804AD5F89835596870
:10C2000041F002015960596841F001015960D96952
:10C210006FF3CB21D96192F8201300295ED1186801
:10C2200061F3CF301860186861F38E3018601868B9
:10C2300061F38A201860196892F8274364F3492152
:10C24000196092F82103196801285AD06FF3082168
:10C250001960196860F38201196092F822130729A6
:10C260002DD858686FF34920586058686FF308203C
:10C270005860186861F3C5001860196892F8234384
:10C2800064F3C7111960196892F8244364F3CB2151
:10C290001960196892F8254364F34101196019681F
:10C2A00092F8262362F3000119601A69072060F3EF
:10C2B0000F021A611A6842F040021A60F8BD0A299A
:10C2C0006DD058686FF349205860586840F480700A
:10C2D0005860186861F3C5001860CEE7012951D095
:10C2E000022937D00329A6D1196841F40041196009
:10C2F000196841F48041196019686FF38A21196047
:10C3000099E7012CA2D141F480711960A1E7364B65
:10C31000196921EA02021A6124E7334B996921EA7B
:10C3200002029A611EE7304B596A21EA02025A6200
:10C3300018E72D4B196A21EA02021A6212E7304807
:10C340004EF096FA2F4AD2F8203823F48043C2F8F0
:10C35000203850E7196841F40041196019686FF3FB
:10C360008E31196019686FF38A21196063E72648D6
:10C370004EF07EFA234AD2F8243823F48053C2F8D0
:10C38000243838E719686FF3CF31196019686FF3F3
:10C390008E311960196841F4806119604BE7596862
:10C3A00041F40071596059686FF3082159601968A8
:10C3B0006FF3C501196060E714484EF059FA114A4D
:10C3C000D2F8203823F40043C2F8203813E710488D
:10C3D0004EF04EFA0B4AD2F8243823F40053C2F838
:10C3E000243808E7BC160120003802400030014024
:10C3F00000380040003C00400034014000000120B3
:10C400000E002000003002400C0024000F0020002D
:10C410000D00240082690023102110B4D360138220
:10C420009160416844690C31C2E900132CB1C269C2
:10C43000C2E90133D360138211605DF8044B704789
:10C4400070B40468D4E904215368002900F0918095
:10C450004861157C16684A68022000FA05F545F027
:10C460000C0575600D7C0968A84040F00C00486020
:10C4700019686FF30001196011686FF30001116012
:10C480001068A16940F0020010601D684BF6EF7C57
:10C4900005EA0C051D6018680D8905431D601868C4
:10C4A0004D7C65F30D3018601868CD7B65F38B20EB
:10C4B000186018688D7B65F3092018604D7B18683B
:10C4C00065F3C71018600D7B186865F38610186057
:10C4D00018680D7C65F34510186058684D8965F340
:10C4E0000F005860086849689860D9601068E16971
:10C4F00000EA0C0010601568088928431060106875
:10C500004D7C65F30D3010601068CD7B65F38B209A
:10C5100010608D7B106865F3092010604D7B1068FA
:10C5200065F3C71010600D7B106865F3861010600E
:10C5300010680D7C65F34510106050684D8965F3F7
:10C540000F005060D1E900019060D160196841F09E
:10C5500001011960136843F00103136063685A68AE
:10C5600042F001025A605A6842F002025A6070BCFE
:10C570007047157C506110680222AA4042F00C02FC
:10C5800042601A6861F300021A601968A2694BF6EA
:10C59000EF7001401960186811890143196019682A
:10C5A000507C60F30D3119601968D07B60F38B21EA
:10C5B00019601968907B60F3092119601968507B34
:10C5C00060F3C71119601968107B60F38611196058
:10C5D0001968107C60F3451119605089596860F33F
:10C5E0000F015960D2E900129960DA601A6842F0CE
:10C5F00001021A601A68616842F002021A604B6810
:10C6000043F002034B6070BC704700BFF8B50546AD
:10C610002C6895F838706368012284F824201A6821
:10C620006FF386121A60A8882289824219D0B0F569
:10C63000807F0246A8BF4FF48072022AB8BF022250
:10C640001968002A92FAA2F2B2FA82F208BF4FF0F9
:10C65000FF32013A21F0380141EAC20292B21A6077
:10C6600020812A7BA17A91420AD01968002A72D0CF
:10C670006FF34101196019686FF300011960A2722C
:10C680001A6842F040021A60216A8A68002A78D04B
:10C6900000200646143116448A680130002AF9D178
:10C6A000227B62B15FB1012871D8072E6FD800EBF1
:10C6B00080029200216A0A44127B002A67D0226A13
:10C6C00092680026002A4FD00EB1327B22B1AA68B0
:10C6D00012B1116892888A62226A1768226A5168C8
:10C6E000226A926802F1FF3C92B117B33A4612F8FF
:10C6F000010B17469A689207FCD5D8609A68D20752
:10C70000FCD5DA6809B101F8012BBCF1010CECD2BF
:10C71000236A1B7BC3B9236A1B6963B1236A686CF4
:10C720001B69984701280AD0022804D100232362FC
:10C73000F8BDFF20DEE7266A236A14332362236AEA
:10C740009B688BB16368BFE7AB68002BE3D01A68C6
:10C750009B889361DFE741F002011960196841F09D
:10C7600001011960A2728BE7236A1B68002B32D08B
:10C77000236A1D68236A5968236A216200221A60AD
:10C7800046E7217B00299AD0002F93D197E7216AB1
:10C79000A3698A680868B8B158600120587392B2DA
:10C7A0005A812B685B6933B14968E369A9B10120FB
:10C7B000596058735A81AB6813B11A689B889362A9
:10C7C0002846BDE8F8403BE658730648FF2600F8C7
:10C7D000346F5860E3E72362F8BD0348586059732B
:10C7E000E8E700BFB83E0010F03E001038B5D0F8C2
:10C7F00090102C4B04465A68D0F8880071B1131A77
:10C8000099420BDC94F88030C4F88820012B10D0BA
:10C81000D4F884300133C4F8843038BDD4F894306F
:10C82000C4F888200344C4F88C3094F88030012B7D
:10C83000EED16168201D04F19805EFF3118C1023EF
:10C8400083F3128863681B6A0BB3D4F8A0302A46BE
:10C850001BB1D3691432002BFBD10B6AFBB1996871
:10C8600039B9934209D0196829B15B6899680029E0
:10C87000F7D01433F3E7C3E900055FFA8CFC8CF3BF
:10C880001188D4F884300133C4F8843038BD0D6287
:10C890005FFA8CFC8CF31188FFF7B8FEB8E71860DC
:10C8A000FFDE00BF001000E02DE9F041826992F840
:10C8B0008C30012B8AB005464AD0023B012B51D85F
:10C8C00092F8FC30D26C2F4C63F07F0313708669B2
:10C8D000336DD6F8108003F1010E0FCCEC46ACE8B6
:10C8E0000F00F36CCDE9003E0FCCACE80F0094E8EC
:10C8F000030006F110078CE80300EFF3118010230A
:10C9000083F3128833691B6A002B2FD0029B6A467F
:10C910001BB1D3691432002BFBD1D8F82030002B87
:10C920002DD0996839B993420AD0196829B15B684A
:10C9300099680029F7D01433F3E71F60C3F804D0D7
:10C94000C0B280F31188AA6911690B6A002BFCD16F
:10C95000136D5A8852BAEA819A8852BA2A82DB88C1
:10C960005BBA6B8201200AB0BDE8F081C8F820D024
:10C97000C0B280F311883846FFF748FEE3E71F6036
:10C98000FFDE00BF107906082DE9F04190F88C30E9
:10C99000056D012B8AB0044655D015D8C36C4FF0F5
:10C9A000FF321A605A609A60DA60D0F8903005223F
:10C9B000B3F57A7FC0F8A0207AD8032380F88C30B2
:10C9C00001200AB0BDE8F081023B012BF8D890F8B5
:10C9D000FD30C26C504E63F07F031370036DD0F8CE
:10C9E000108003F1010E00F110070FCEEC46ACE809
:10C9F0000F00E36CCDE9003E0FCEACE80F0096E8E7
:10CA000003008CE80300EFF31180102383F31288F6
:10CA100023691B6A002B70D0029B6A461BB1D36945
:10CA20001432002BFBD1D8F82030002B72D099683B
:10CA300039B9934225D0196801B35B689968002918
:10CA4000F7D01433F3E790F8FC2090F8FD309B1AF0
:10CA50005B100133DBB205EB430235F813305BBAF0
:10CA6000A0F8803053885BBAA0F8823093885BBA14
:10CA7000A0F8843001200AB0BDE8F0811F60C3F83F
:10CA800004D0C0B280F311882269136A002BFCD154
:10CA90006B885BBAA4F88030AB885BBAA4F88230AC
:10CAA000EB8801205BBAA4F884300AB0BDE8F081BD
:10CAB00003691A7B52B35B6943B390F848302BB3D8
:10CAC00090F8FC30C26C606563F07F03137090F8DF
:10CAD000FC1090F8FD30026D1048C4F8B4005B1AE9
:10CAE00007330121C4F8AC30E36C84F8B0100A4479
:10CAF000C4E9293284F88C1062E7C8F820D0C0B2AB
:10CB000080F311883846FFF781FDBDE7022384F8E2
:10CB10008C3055E71F60FFDE10790608F9830008A6
:10CB200038B504462549D0F8883094F88020D0F8EC
:10CB3000940049680344012AC4E9221305D0D4F8BB
:10CB400084300133C4F8843038BD6168201D04F19D
:10CB50009805EFF3118C102383F3128863681B6A26
:10CB60000BB3D4F8A0302A461BB1D3691432002B82
:10CB7000FBD10B6AFBB1996839B9934209D01968A6
:10CB800029B15B6899680029F7D01433F3E7C3E94A
:10CB900000055FFA8CFC8CF31188D4F884300133E3
:10CBA000C4F8843038BD0D625FFA8CFC8CF31188B8
:10CBB000FFF72CFDC3E71860FFDE00BF001000E0A8
:10CBC000F0B5826992F88C30012B8BB0054644D0C9
:10CBD000023B012B4BD8D36C2C4C8C221A708669EB
:10CBE0000FCCEC46D6F810E0ACE80F00F36C0093E5
:10CBF000336D01930FCCACE80F0094E8030006F10D
:10CC000010078CE80300EFF31180102383F31288E0
:10CC100033691B6A002B2DD0029B6A461BB1D36976
:10CC20001432002BFBD1DEF8203063B3996839B998
:10CC300093420AD0196829B15B6899680029F7D036
:10CC40001433F3E71F60C3F804D0C0B280F3118837
:10CC5000AA6911690B6A002BFCD1136DB3F902208C
:10CC6000EA81B3F904202A82B3F906306B820120ED
:10CC70000BB0F0BDCEF820D0C0B280F3118838469A
:10CC8000FFF7C4FCE4E71F60FFDE00BF3879060849
:10CC90002DE9F04390F8CE30032B8BB004466CD0D6
:10CCA00090F88C30076D012B00F0C98015D8C36C4B
:10CCB00000221A605A609A609A81D0F8903005225A
:10CCC000B3F57A7FC0F8A0204AD80323012580F865
:10CCD0008C3028460BB0BDE8F083023B012B47D8CF
:10CCE000C36CDFF89C8292221A70D0F8109000F189
:10CCF0001006B8E80F006D46AC46ACE80F00B8E887
:10CD00000F00ACE80F0098E80300E36C8CE8030028
:10CD10000093236D0193EFF31180102383F31288A6
:10CD200023691B6A002B00F01781029B2A461BB166
:10CD3000D3691432002BFBD1D9F82030002B00F03E
:10CD40001481996851B99A4200F09D8019680029B0
:10CD500000F097805B6899680029F4D01433F0E7FD
:10CD600003691A7B002A40F0D880022384F88C30B3
:10CD7000012528460BB0BDE8F0837D4901F10C0088
:10CD800000230122CDE900100A210291CDE90433EC
:10CD9000CDE9063321698DF80C2004F110068DF8D9
:10CDA00020200993EFF31180102383F31288236965
:10CDB0001B6A002B00F0A080029B6D462A461BB127
:10CDC000D3691432002BFBD10B6A002B00F0CD800D
:10CDD000996839B9934209D0196829B15B68996893
:10CDE0000029F7D01433F3E7C3E90065C0B280F33C
:10CDF00011882269136A002BFCD15E49B1F84A20E0
:10CE0000052A1ADDB1F94C00CD6CB1F94E70B1F9BB
:10CE1000501010F5004F78D0C4F88050A4F884105A
:10CE20000125063A002AA4D03046B0227E2112F015
:10CE3000ABF828460BB0BDE8F0831D46F2E74E4B39
:10CE4000B98993F92834B7F9082013FB01F3002BB3
:10CE5000B8BF03F2FF13A2EB6323B3F5004F43DB2C
:10CE600047F6FF73A0F88030B7F90A30A4F8823093
:10CE7000B7F90C30A4F88430012528460BB0BDE882
:10CE8000F083C3E90065C0B280F311882269136A98
:10CE9000002BFCD1384BF98893F92834B7F90220DC
:10CEA00013FB01F3002BB8BF03F2FF13A2EB6323C4
:10CEB000B3F5004F10DB47F6FF73A4F88030B7F9E5
:10CEC0000430A4F88230B7F90630A4F88430012584
:10CED00028460BB0BDE8F08313F5004FB8BF4FF400
:10CEE0000043A4F88030EAE713F5004FB8BF4FF4D1
:10CEF0000043A0F88030B7E7C1F820D0C0B280F37B
:10CF000011883046FFF782FB73E717F5004F83D196
:10CF100011F5004F80D11D4683E75B69002B3FF47C
:10CF200024AF90F84850002D3FF41FAFC36C6065EC
:10CF30008C221A70026DC0F8A8200E2201230F491E
:10CF4000C0F8AC20C26CC0F8B410C0F8A42080F8BF
:10CF5000B03080F88C300CE7C9F82050C0B280F3B4
:10CF600011883046FFF752FB90E71E60FFDE00BFDE
:10CF7000F43E0010B83E0010BC1601207D89000868
:10CF80003879060838B504462549D0F8883094F831
:10CF90008020D0F8940049680344012AC4E9221390
:10CFA00005D0D4F884300133C4F8843038BD6168CA
:10CFB000201D04F19805EFF3118C102383F31288E0
:10CFC00063681B6A0BB3D4F8A0302A461BB1D3693F
:10CFD0001432002BFBD10B6AFBB1996839B993422B
:10CFE00009D0196829B15B6899680029F7D0143312
:10CFF000F3E7C3E900055FFA8CFC8CF31188D4F8E1
:10D0000084300133C4F8843038BD0D625FFA8CFC83
:10D010008CF31188FFF7FAFAC3E71860FFDE00BF50
:10D02000001000E02DE9F043826992F88C30012B6A
:10D030008BB0054657D0023B012B50D8D36C374CF0
:10D04000A8225A708669F36CD6F8109003F1010893
:10D05000336D5F1C0FCCEC46ACE80F000FCCACE896
:10D060000F0094E80300CDE900878CE8030006F187
:10D07000100EEFF31180102383F3128833691B6ABB
:10D08000002B3ED0029B6A461BB1D3691432002BA1
:10D09000FBD1D9F82030002B3CD0996839B99A429D
:10D0A0000BD0196829B15B6899680029F7D014334F
:10D0B000F3E7C3F800E0C3F804D0C0B280F31188EE
:10D0C000A9690A69136A002BFCD10B6DB3F9022020
:10D0D000EA81B3F904202A82B3F906306B82012079
:10D0E0000BB0BDE8F083136DB3F90820C281B3F92A
:10D0F0000A200282B3F90C30438201200BB0BDE854
:10D10000F083C9F820D0C0B280F311887046FFF7D1
:10D110007DFAD5E7C3F800E0FFDE00BF38790608E6
:10D120002DE9F04390F88C30056D012B8BB004464F
:10D130005DD014D8C36C00221A605A609A609A813C
:10D14000D0F890300522B3F57A7FC0F8A0205ED8E1
:10D15000032380F88C3001200BB0BDE8F083023B44
:10D16000012BF8D8C36C404EA2225A70C36CD0F881
:10D17000109003F10108036D00F1100703F1010E97
:10D180000FCEEC46ACE80F000FCEACE80F0096E8EF
:10D190000300CDE9008E8CE80300EFF3118010232B
:10D1A00083F3128823691B6A002B4ED0029B6A46C8
:10D1B0001BB1D3691432002BFBD1D9F82030002BDE
:10D1C00050D0996839B993420AD0196829B15B687F
:10D1D00099680029F7D01433F3E71F60C3F804D02F
:10D1E000C0B280F311882269136A002BFCD1B5F913
:10D1F0000230A4F88030B5F90430A4F88230B5F9D3
:10D200000630A4F8843001200BB0BDE8F083036938
:10D210001A7B1AB35B690BB390F84830F3B1C36C57
:10D220006065A2225A70D0E9132301210F48C4F887
:10D23000B4000D250A440B44C4E92923C4F8AC50BA
:10D2400084F8B01084F88C1085E7C9F820D0C0B2FB
:10D2500080F311883846FFF7D9F9C4E7022384F830
:10D260008C3078E71F60FFDE10790608A989000876
:10D2700038B504462549D0F8883094F88020D0F895
:10D28000940049680344012AC4E9221305D0D4F864
:10D2900084300133C4F8843038BD6168201D04F146
:10D2A0009805EFF3118C102383F3128863681B6ACF
:10D2B0000BB3D4F8A0302A461BB1D3691432002B2B
:10D2C000FBD10B6AFBB1996839B9934209D019684F
:10D2D00029B15B6899680029F7D01433F3E7C3E9F3
:10D2E00000055FFA8CFC8CF31188D4F8843001338C
:10D2F000C4F8843038BD0D625FFA8CFC8CF3118861
:10D30000FFF784F9C3E71860FFDE00BF001000E0FC
:10D310002DE9F043826992F88C30012B8BB00546E1
:10D3200057D0023B012B50D8D36C374CA8225A70EF
:10D330008669F36CD6F8109003F10108336D5F1C19
:10D340000FCCEC46ACE80F000FCCACE80F0094E833
:10D350000300CDE900878CE8030006F1100EEFF31F
:10D360001180102383F3128833691B6A002B3ED08F
:10D37000029B6A461BB1D3691432002BFBD1D9F84A
:10D380002030002B3CD0996839B99A420BD01968EB
:10D3900029B15B6899680029F7D01433F3E7C3F823
:10D3A00000E0C3F804D0C0B280F31188A9690A690B
:10D3B000136A002BFCD10B6DB3F90220EA81B3F99B
:10D3C00004202A82B3F906306B8201200BB0BDE83D
:10D3D000F083136DB3F90820C281B3F90A200282E9
:10D3E000B3F90C30438201200BB0BDE8F083C9F8DB
:10D3F00020D0C0B280F311887046FFF707F9D5E757
:10D40000C3F800E0FFDE00BF387906082DE9F043DD
:10D4100090F88C30056D012B8BB004465DD014D88C
:10D42000C36C00221A605A609A609A81D0F89030DA
:10D430000522B3F57A7FC0F8A0205ED8032380F8D8
:10D440008C3001200BB0BDE8F083023B012BF8D8F3
:10D45000C36C404EA2225A70C36CD0F8109003F1F6
:10D460000108036D00F1100703F1010E0FCEEC4629
:10D47000ACE80F000FCEACE80F0096E80300CDE952
:10D48000008E8CE80300EFF31180102383F31288E1
:10D4900023691B6A002B4ED0029B6A461BB1D369DD
:10D4A0001432002BFBD1D9F82030002B50D09968D2
:10D4B00039B993420AD0196829B15B689968002983
:10D4C000F7D01433F3E71F60C3F804D0C0B280F381
:10D4D00011882269136A002BFCD1B5F90230A4F837
:10D4E0008030B5F90430A4F88230B5F90630A4F8DC
:10D4F000843001200BB0BDE8F08303691A7B1AB3B6
:10D500005B690BB390F84830F3B1C36C6065A2223D
:10D510005A70D0E9132301210F48C4F8B4000D2537
:10D520000A440B44C4E92923C4F8AC5084F8B01071
:10D5300084F88C1085E7C9F820D0C0B280F3118838
:10D540003846FFF763F8C4E7022384F88C3078E7A5
:10D550001F60FFDE10790608D589000870B5954C6C
:10D5600094F8D835012B92B000F0DF80022B00F048
:10D57000D180002B00F08F808F4DD4F8DC1595F80A
:10D5800028335B064CBF4FF4F0734FF4C37302AE05
:10D590000022A5F82A330123CDE90622CDE908228D
:10D5A00085F82C338DF814308DF828300392834B96
:10D5B0000B92834A5A6502F102129A6502F1021235
:10D5C000DA6502F102121A6602F102125A6602F1DB
:10D5D00002129A6602F10212DA6602F102121A6768
:10D5E0005433029320230493EFF31180102383F329
:10D5F0001288D4F8DC351B6A002B00F0C180049B34
:10D6000032461BB1D3691432002BFBD10B6A002BBD
:10D6100000F0CC80996839B99A420AD0196829B1CA
:10D620005B6899680029F7D01433F3E7654A5E60B8
:10D630001A60C0B280F31188D4F8DC35196A002969
:10D64000FCD195F828235F4811F09EFC94F824261D
:10D650005C48022111F098FC94F8252659480321D2
:10D6600011F092FC94F826369BB1012B00F08180DA
:10D67000032B14BFC722F7225248012111F084FC6A
:10D68000B5F82A235048002112B0BDE8704057F089
:10D690009BB84722F0E70DF10601A02002910DF1A1
:10D6A000070101228DF80600089100200021CDE934
:10D6B0000C01CDE90332CDE90633D4F8DC158DF841
:10D6C000143009928DF828200B930E938DF83C208E
:10D6D0001093EFF31180102383F31288D4F8DC3514
:10D6E0001B6A002B58D0049B02AE32461BB1D36993
:10D6F0001432002BFBD10B6A002B57D0996839B933
:10D700009A421FD01968D1B15B6899680029F7D097
:10D710001433F3E7284DD4F8DC15082385F82833B3
:10D720000DEB03064FF4C37332E7234DD4F8DC1539
:10D73000482385F8283302AE4FF4F07328E7214AD6
:10D74000C3E90026C0B280F31188D4F8DC150B6A57
:10D75000002BFCD19DF8073003F00602022A0AD004
:10D7600003F00503012B144D12D0082385F828334C
:10D77000D8E7872280E7104D082385F82833D1E7C2
:10D780000E62C0B280F311880E48FEF73FFF53E7E8
:10D79000482385F82833CFE702AE0E62C0B280F38B
:10D7A000118804F2DC50FEF731FFCEE7054A1A601B
:10D7B000FFDE00BFBC16012000000120B83E0010B3
:10D7C00010011101981C0120E41C01202DE9F041F9
:10D7D000866EF3686FF34D33F3604779D0F80880B5
:10D7E00084B017F0040F0446684614BF02250125D3
:10D7F0004CF0CEFFAF4B9E4207F0020705D003F579
:10D8000080639E4201D0039A00E0029A02EB8202FA
:10D810005300A94AB3FBF8F3A2FB0312D20802EBB0
:10D820008201A3EB4103042B00D90132B36892B209
:10D8300062F30F03012DB36000F06181F3686FF3B1
:10D840001C73F360F36843F48053F360336967F348
:10D850000D3333616079A36E4107C0F3800200F19C
:10D860002081D96862F34921D960D96862F38A219D
:10D87000D9605A696FF308225A615A696FF34922D5
:10D880005A61227912F0010640F0218112F002055E
:10D8900040F018818949D1F8D822944200F0F380F1
:10D8A000D1F8DC22944200F0EE80D1F8E0229442DC
:10D8B00000F0E980D1F8E422944200F0E480D1F84D
